:400000000080002011000000810400008104000008B5044B1A6803F53F5302331A6000F04FFA00BFFA46004010B5054C237833B9044B13B10448AFF300800123237010BD24
:400040004881FF1F00000000A8170000084B10B51BB108490848AFF300800848036803B910BD074B002BFBD0BDE81040184700BF000000004C81FF1FA8170000C880FF1F84
:400080000000000008B562B600F040FB00F0ACFC00F09EFB00F002FC00F0C4FA00F028FB00F094FC00F0CEFC00F0A4FE00F0CCFE00F0EAFD344B1B68012B5AD1324C002319
:4000C0002360A3880133A38000F03AFC2389E38000F04AFE00B22081B0F5805F01DBE2882281002000F03AFE274BB3F90820B3F906309A4208DBD21A92B2234B5A812349BA
:40010000234800F02DFF07E09A1A92B21E4B5A8120491F4800F024FF1B4CB4F90820C2F30B0242F400521C4B1A801C4D1C49284600F016FF284600F0A1FE0021084600F00E
:40014000B1FDA08800F0CCFD0021012000F0AAFD208900F0C5FD0721012000F0A3FDE08800F0BEFD0721002000F09CFD084800F031FD054B9A8847F230539A429AD10022FA
:40018000014B9A8096E700BF6481FF1FAC1700009881FF1FB01700009481FF1F8481FF1FB4170000FEE700BFF0B40022174611E050F82760F3B226F0FF0608E001EB420556
:4001C00011F812406D78A5550132013BDBB2002BF4D10137182FEBD9F0BC70470F4B1B78DBB203F007010E4A11701B09013213702023A2F23272137002220A490A701021EB
:4002000009480170303003700430017007490A70074A13704422074B1A707047CF0100496E580040885A0040985A0040D85A0040DC5A00407658004008B50A46002100F066
:4002400086FE08BD38B50222384B1A801823384A137040F25F11023211800232137040F2AD1102321180023213700622314B1A7008224FF040231A7043F2133203F2122315
:400280001A80023B05221A701B7843F2C82404E04FF4F07000F014FE013C24B1264B1B7813F0800FF4D114B90120FFF77BFF48224FF040231A70702203F500731A7040F25F
:4002C0000B7222331A8041F25122023B1A80002419250CE0194B1B7803F0010343EA440404F003044FF4F07000F0EAFD013D0DB1032CEFD115B90320FFF754FF104A4FF42D
:40030000807313800723137000230E490B7048200231087013700532137002220A4B1A700A4A137843F00703137038BD8040004082400040004300401042004025420040F0
:40034000044000400640004001400040A243004008B500F0F1FD08BD38B572B6344A137843F00403137000240CE0324D630019194A0011462A44084691882858FFF75CFF27
:400380000134E4B2072CF0D92B494FF09040FFF70BFF40F20312294B1A8040F2033204331A80274A137843F0020313701032137843F002031370234C237843F04003237014
:4003C000A2F58632513A137843F01003137008221D491E48FFF7BCFF0A221D491D48FFF7B7FF08221C491D48FFF7B2FF08221C491C48FFF7ADFF08221B491C48FFF7A8FFC6
:400400001B4A137843F0080313701A4D61232B70FFF718FF81232B700122174B1A70FFF7DDFE0E2221461548FFF792FF38BD00BFE8460040BC170000640000484A5800405B
:4004400003500140A0430040C003004802510040C803004810510040D403004822510040DC03004832510040E403004842510040224300400048004004000840B043004009
:4004800008B500F02DFD03680C2B00D1FEE7FEE708B5094B1A681044084BC31A802B02DC054B186005E000F01BFD0C2303604FF0FF32104608BD00BFCC80FF1FA081FF1F4E
:4004C00008B5104E104D16E029686B68AC68002204E051F8040B43F8040B0432A242F8D1E868002203E0002143F8041B04328242F9D11035013E002EE6D100F0F7FCFFF7B5
:40050000C1FDFEE7010000004818000008B5104A104B1A60104A136843F40073136000230AE0032B03D80D4A52F8231000E00C490C4A42F8231001332F2BF2D90A4B1A78B7
:400540000A4B1A70074A0A4B1A60FFF705FF08BD0004FA050CED00E014ED00E000000000810400000080FF1FBC760040C080FF1F08ED00E0054A137843F002031370103261
:40058000137843F002031370704700BFA74300400F490B7803F0FC0200F0030313430B7001280AD10B4B1B78DBB20B4A13700B4B1B78DBB2013213707047094B1B78DBB219
:4005C000054A1370074B1B78DBB201321370704741580040110100493246004015010049AF010049B701004908B50120FFF7D0FF0B4B1A7842F020021A701A7802F0FB021B
:400600001A701A7842F008021A7003F28E231A7802F0E7021A701A7842F010021A7008BD4158004008B5054B1B7823B9FFF7DCFF0122024B1A70FFF79DFF08BD7081FF1F90
:40064000054A137843F0080313701032137843F008031370704700BFA74300400F490B7803F0FC0200F0030313430B7001280AD10B4B1B78DBB20B4A13700B4B1B78DBB256
:40068000013213707047094B1B78DBB2054A1370074B1B78DBB201321370704743580040130100493646004017010049B3010049BB01004908B50120FFF7D0FF0B4B1A78C6
:4006C00042F020021A701A7802F0FB021A701A7842F008021A7003F527731A7802F0E7021A701A7842F010021A7008BD4358004008B5054B1B7823B9FFF7DCFF0122024B73
:400700001A70FFF79DFF08BD7181FF1F054A137843F0010313701032137843F001031370704700BFA2430040054A137843F0080313701032137843F008031370704700BF73
:40074000A8430040054B1A7802F0FD021A701A7800F0020010431870704700BF2C580040014B1870704700BF835B0040064B1B78C3F3810303F19243063393F83831DBB24F
:40078000024A1370704700BF2C5800400B46004008B5064B1A7802F0F3021A701A7800F00C0010431870FFF7E1FF08BD2C58004008B50023054A1370013213700420FFF744
:4007C000E7FF0220FFF7BEFF08BD00BF2C58004008B5074B1B7823B9FFF7EAFF0122044B1A70FFF7A1FFD020FFF7BAFF08BD00BF7281FF1F054A137843F0020313701032FC
:40080000137843F002031370704700BFA8430040054B1A7802F0FD021A701A7800F0020010431870704700BF24580040014B1870704700BF815B0040064B1B78C3F381035F
:4008400003F19243063393F83031DBB2024A1370704700BF245800400946004008B5064B1A7802F0F3021A701A7800F00C0010431870FFF7E1FF08BD2458004008B50023BC
:40088000054A1370013213700420FFF7E7FF0220FFF7BEFF08BD00BF2458004008B5074B1B7823B9FFF7EAFF0122044B1A70FFF7A1FF6820FFF7BAFF08BD00BF7381FF1FDF
:4008C00010B5044605E0084B186800F0F9FAA4F50044B4F5004FF6D8034B586800FB04F000F0EEFA10BD00BFD080FF1F08B5034B1B7A00FB03F000F0E3FA08BDD080FF1F4E
:40090000024A137843F080031370704775640040014B1880704700BF08680040014B1880704700BF88680040014B1880704700BF48680040014B1870704700BF8564004086
:40094000014B1878704700BF65640040014B188880B27047A868004008B501E0FFF7F6FFFFF7EEFF10F0100FF8D108BD10B5154A137803F0C00343F00A0313701F321378DA
:4009800043F001031370104C237843F0010323704AF6F560FFF7BCFF4AF6F560FFF7BEFF41F27F10FFF7C0FF0120FFF7C3FF00F08FFA237843F01003237000F08DFAFFF784
:4009C000CBFF10BD756400409564004008B5054B1B7823B9FFF7CAFF0122024B1A70FFF78FFF08BD7481FF1F054A137843F0020313701032137843F002031370704700BFEA
:400A0000A24300400122014B1A6070476481FF1F014B1B681864704708ED00E04001C0B2014B1870704700BF00E400E00122014B1A60704700E100E00122014B1A60704755
:400A400080E100E008B5FFF7F7FF0448FFF7E0FF0020FFF7E3FFFFF7E9FF08BD050A000010B50B4C237803F09F032370237803F0F00323702378184340F0100020700120E7
:400A8000FFF734FF237803F0EF03237010BD00BF2051004038B505460E4C237843F020032370237803F0BF0323700020FFF71EFF237803F0F003237023781D4345F0100538
:400AC00025700120FFF712FF237803F0EF03237038BD00BF2051004070B5354B1A7802F08002D2B21A7033490A7802F0F00242F00F020A7001310A7802F0F0020A70013125
:400B00000A7802F0F0020A701A7802F0DF021A701A7842F040021A704FF4CA760020FFF7E5FE234D2B7843F010032B700120FFF7DDFE214B1C78E4B22B7803F0EF032B703B
:400B40000020FFF7D3FE04F00804E4B22B7843F010032B700120FFF7C9FE2B7803F0EF032B7014B90A20FFF7C1FE013E0CB1002ED4D10F4A137803F0BF031370137803F05E
:400B80008003DBB213700232137803F0F00313700132137803F0F00343F00F0313700132137803F0F00343F00F03137070BD00BF20510040225100402151004010B5044691
:400BC000FFF78AFF2009FFF765FF04F00F00FFF761FF10BD38B505460078012404E0FFF7EDFF285D0134E4B20028F8D138BD00BF10B50446FFF770FF2009FFF731FF04F086
:400C00000F00FFF72DFF10BD08B52820FFF758FE0320FFF725FF0520FFF752FE0320FFF71FFF0F20FFF74CFE0320FFF719FF0120FFF746FE0220FFF713FF0520FFF740FE08
:400C40000620FFF7D5FF0E20FFF7D2FF2C20FFF7CFFF0820FFF7CCFF0120FFF7C9FF0C20FFF7C6FF0320FFF7C3FF0520FFF728FE08BD00BF08B50C20FFF7BAFF0122014B29
:400C80001A7008BD7581FF1F08B5054B5B7823B9FFF7BAFF0122024B5A70FFF7EBFF08BD7581FF1F08B5032819D8DFE800F002070D1381F08000FFF79BFF08BDA1F14000A2
:400CC000C0B2FFF795FF08BDA1F16C00C0B2FFF78FFF08BDA1F12C00C0B2FFF789FF08BD10B584B000238DF80E30092211E0144BA3FB0013DB081C4603EB83035900431A8D
:400D0000DBB2303304A9114401F80C3C2046013AD2B20928EBD80A4BA3FB0013DB0803EB83035900431ADBB2303304A9114401F80C3C01AB9818FFF74DFF04B010BD00BF43
:400D4000CDCCCCCC014B1870704700BF83640040014B1878704700BF63640040014B1880704700BF04680040024B1B78024B188880B270470264004084680040014B1888FE
:400D800080B2704784680040014B1880704700BF44680040014B1880704700BF6468004008B501E0FFF7EAFFFFF7D2FF10F0400FF8D108BD08B5FFF7F3FF40F6FF70FFF711
:400DC000E3FF0020FFF7CAFF0020FFF7BBFFFFF7BFFF40F6FF70FFF7DDFF00F079F8044A137843F01003137000F076F808BD00BF9364004008B5044B1B7823B9FFF7DAFFD1
:400E00000122014B1A7008BD7781FF1F0622044B1A70472210331A70002251331A7070472865004010B500F053F80446054A137843F01003137000F033F8204600F04CF851
:400E400010BD00BF9965004008B5054B1B7823B9FFF7DCFF0122024B1A70FFF7E3FF08BD7881FF1F034B1B7813F0040FFAD1024B18707047696500404965004038B5074B24
:400E80001B782BB938BDFFF7EDFF0134A4B201E005460024285D0028F5D138BD7881FF1F054A137843F0040313701032137843F004031370704700BFA243004000000000CE
:400EC0000230800803D000BF01380046FCD17047EFF3108072B6704780F31088704700BF014B1868704700BF4081FF1F0E4B70B51E460E4C0025E41AA410A54204D056F894
:400F0000253098470135F8E700F08CFC084B094C1E46E41AA4100025A54204D056F8253098470135F8E770BD3018000030180000301800003818000010B5431E0A4491421F
:400F400004D011F8014B03F8014FF8E710BD03460244934202D003F8011BFAE7704700000EB400B54FF402719CB0ADF814106FF00041049107914FF6FF711DAB02900690B8
:400F8000084853F8042BADF81610006802A9019300F064F8029B00221A701CB05DF804EB03B070474081FF1F2DE9F0478E6882469E420C46914698463ED88A8912F4906FE7
:400FC0003AD02568096902236F1A656905EB450595FBF3F57B1C43449D4238BF1D4653050FD5294600F040FB064698B13A462169FFF7A2FFA38923F4906343F08003A38147
:4010000013E02A4600F08EFB064670B92169504600F0DEFA0C23CAF80030A3894FF0FF3043F04003A381BDE8F08726613E44266046466561ED1BA560464528BF464649468B
:401040003246206800F0A8FAA36800209B1BA36023681E442660BDE8F08700002DE9F04F9DB003938B8980461C060D4616460DD50B695BB9402100F0F7FA2860286118B9FA
:401080000C23C8F80030CDE040236B610023099320238DF82930DFF89CB130238DF82A3037463C4614F8013B1BB9B7EB060910D003E0252BF9D02746F3E74B463246294698
:4010C0004046FFF771FF013000F0A780099B4B4409933B78002B00F0A08000234FF0FF3204930793059206938DF853301A930126052221784E4800F041FA671C049B38B1A3
:401100004B4A3C46801A06FA00F018430490EFE7D90644BF20228DF853201A0744BF2B228DF8532022782A2A03D0079A00210A200BE0039A111D12680391002A10DA5242AB
:4011400043F00200079204900BE027463B780134303B092B03D800FB02320121F5E701B107923B782E2B1ED17B782A2B0AD1039B02371A1D1B680392002BB8BF4FF0FF3384
:40118000059310E0002319460593781C0A2407463A780130303A092A03D804FB01210123F5E703B1059103223978224800F0E6F940B14023CBEB000003FA00F0049B0137DB
:4011C00018430490397806221B487E1C8DF8281000F0D4F988B1194B33B9039B073323F007030833039314E003AB00932A46144B04A94046AFF3008007E003AB00932A4670
:401200000F4B04A9404600F093F8B0F1FF3F824603D0099B5344099342E7AB895B0601D4099801E04FF0FF301DB0BDE8F08F00BFEE170000F4170000F81700000000000003
:40124000A90F00002DE9F04791461F460A698B6806469342B8BF1346C9F8003091F843200C46DDF8208012B10133C9F800302368990642BFD9F800300233C9F8003025686B
:4012800015F0060510D104F1190A07E00123524639463046C04701301AD00135E368D9F800209B1A9D42F1DB94F843302268003318BF012392060FD5E118302081F8430061
:4012C0005A1C94F845102244023382F8431003E04FF0FF30BDE8F08704F1430239463046C0470130F4D02268D9F80050E36802F00602042A08BF5D1B2269A3680CBF25EACA
:40130000E57500259342C4BF9B1AED184FF000091A344D4509D00123224639463046C0470130D5D009F10109F3E70020BDE8F0872DE9F04317460A7E85B06E2A984606467E
:401340000C460C9B01F1430E00F0AE8011D8632A22D009D8002A00F0BB80582A40F0CA8081F84520834955E0642A1ED0692A1CD0C0E0732A00F0B08009D86F2A2ED0702A30
:4013800040F0B8800A6842F020020A603EE0752A24D0782A3AD0ADE01A6801F14205111D1960136884F84230A8E021681A6811F0800F02D0111D196008E011F0400F02F119
:4013C0000401196002D0B2F9003000E01368002B3CDA2D225B4284F8432037E021681A6811F0800F02D0111D196007E011F0400F02F10401196001D0138800E01368227E21
:401400005C496F2A14BF0A2208221BE078225A4984F845202268186812F0800F00F104051D6003D1550601D5038800E00368D00744BF42F0200222601BB9226822F02002FD
:4014400022601022002084F8430001E049490A226568002DA56008DB206820F0040020602BB9002D7DD175460CE0002B79D07546B3FBF2F002FB1033CB5C05F8013D03468C
:401480000028F5D1082A0BD12368DA0708D5236962689A42DEBF302305F8013C05F1FF35C5EB0E0323612EE008681A6810F0800F496903D0101D1860136808E010F0400FB1
:4014C00002F104001860136801D0198000E0196000232361754616E01A68111D1960156800216268284600F049F808B1401B6060636804E004F1420584F842200123236172
:40150000002384F84330CDF800803B4603AA21463046FFF797FE013002D14FF0FF3026E023692A4639463046C0470130F5D023689B0710D5002504F1190907E001234A466F
:4015400039463046C0470130E7D00135E368039A9B1A9D42F2DBE068039B9842B8BF184605E00B7804F1420584F842308AE705B0BDE8F083FF1700001018000010B5C9B225
:4015800002449042034605D01C7801308C42F8D1184610BD002010BD884210B501EB020301D8421E0BE09842FBD28118D21AD34204D013F8014D01F8014DF8E710BD9942A1
:4015C00004D011F8014B02F8014FF8E710BD000038B50546002944D051F8043C0C1F002BB8BFE41800F0D4F81E4A1368114613B96360146030E0A3420DD92268A01883422A
:4016000001BF18685B681218226063600C6023E0A24203D813465A68002AF9D118681918A1420BD12168014458188242196013D110685268014419605A600DE002D90C238B
:401640002B6009E021686018824201BF106852680918216062605C602846BDE8384000F098B838BD8081FF1F70B5CD1C25F0030508350C2D38BF0C25002D064601DBA94237
:4016800002D90C23336046E000F082F8234B1C681A462146A1B10B685B1B0ED40B2B03D90B60CC18CD501EE08C420BBF63684B681360636018BF0C4615E00C464968E9E76E
:4016C000174C23681BB9304600F052F820602946304600F04DF8431C18D0C41C24F00304A0420DD12560304600F053F804F10B00231D20F00700C31A0ED05A42E25070BD99
:40170000211A304600F034F80130EBD10C233360304600F03EF8002070BD00BF8081FF1F7C81FF1FF8B5074615460E4621B91146BDE8F840FFF798BF1AB9FFF749FF2846C8
:40174000F8BD00F027F885420ED929463846FFF78BFF044650B131462A46FFF7EDFB31463846FFF735FF01E03046F8BD2046F8BD38B5064C0023054608462360FEF788FE3B
:40178000431C02D1236803B12B6038BD9C81FF1F7047704751F8040C0028BEBF091851F8043CC01804387047000000002B2575002D25750025780D0A0000000050510040FB
:4017C0002000C05100401000F0510040100000000140001000140140000800400140000A004C014000020050014020004300232D302B2000686C4C006566674546470030FC
:40180000313233343536373839414243444546003031323334353637383961626364656600000000F8B500BFF8BC08BC9E4670474D0000000D050000F8B500BFF8BC08BC12
:401840009E4670472900000058180000C880FF1F800000005800000000000000A081FF1F00007440E880000021000000408AF70100000000000000000000000000000000B8
:4018800000000000000000000000000000000000EC170000000000000000000000000000000000000000000000000000000000000000000000000000000000000000000025
:4018C00000000000000000000000000000000000E080FF1F00000000000000000000000000000000000000000000000000000000000000000000000000000000000000006A
:4019000000000000000000000000000000000000000000000000000000000000000000000000000000000000000000000000000000000000000000000000000000000000A7
:401940000000000000000000000000000000000000000000000000000000000000000000000000000000000000000000000000000000000000000000000000000000000067
:401980000000000000000000000000000000000000000000000000000000000000000000000000000000000000000000000000000000000000000000000000000000000027
:4019C00000000000000000000000000000000000000000000000000000000000000000000000000000000000000000000000000000000000000000000000000000000000E7
:020000040003F7
:0200000480007A
:400000000152004002640040016500404B0201402B030140430401402305014003070140010D01400414014004150140031701405F18014038190140051B0140044001401B
:400040000641014004420140034501400247014004490140044C0140014D0140055001400151014009048367850D890F06020C0116051B011C0628013206330136013E40AE
:400080004014410649FF4AFF4BFF4DA04F015018580459045A045F016040628064406540668068406A506BA86C406D206E506FA8820284028C018F01A605B004B402B50188
:4000C000B601BE50C014C106C525C6C0C70EC81FC9FFCAFFCBFFCDAFCE07CF01D018D407D804D904DA04DB04DF01E040E280E440E540E680E840EA50EBA8EC40ED20EE5042
:40010000EFA80044024005480E200F0110201720184019801A041D801E202004272036103A404080418044804580464048204A484E085108525059A05A046108621083010A
:4001400085608640C0ADC2A0C444CC20CE08D099D224D60ED806E2014030410249FF4AFF4BFF4DA04F0450185A045D015F01604062C06440654066C068C06AC06CC06EC008
:400180008301840385028A1C96049E09AA12AD02B003B302B404B501B618B908BE10C030C102C5D0C620C701C83AC9FFCAFFCBFFCDAFCE0FCF04D018D280D405D604D804E0
:4001C000D904DA04DB04DC11DD11DF01E040E2C0E440E540E6C0E8C0EAC0ECC0EEC007140F2216041D401E8827142F023C023D0841204304452047044F0155245604571310
:400200005E885F01650267407401850287409D48A210A608C060C2A0C440CA10CEC0D066D6D0D8809D08A210A608E20139083F0459045F0122088610A210A608A210A60897
:40024000B10802080421060E0B010E1C1103141C162320212216244025032603290230603103320F341A380239023A283F014001454049FF4A074BFF4C404D204EF04F05D8
:400280005008580459045A045C025D025F01604061A86240632082038308840C86118B158C108D038E0C8F1490109113930C941C960299139B049C099E10A020A120A414A2
:4002C000A90AAB14B10FB320B420B510B61FBB02BE10BF14C053C102C5EBC60CC807C9FFCAFFCBFFCEF0CF44D00CD401D804D904DA04DB04DC22DD22DF01E6C0EA40EB0219
:400300000001020203200444050209080A800B020D0810A01502162018011A041B401C441D081F2920082101220627802B482F2832023320360238803A203B023F2042207B
:400340004320478048A049014A024D024E40504056205710588059015A045B20C0BDC22DC43CCA65CC85CE2DD016D208D60FEA80AE04B084B440B720EC0833805280CC1084
:40038000D42053108680A680A780D420E61087909720A780E65013018301C4080002C00863028701D640E6105940B001D401EA01AD40000308010A0210041C040003000011
:4003C00000020200020000000400000F0F00040000000000007F7F000000000000001000100020000004040004000000000000000000000000000000000000000000000087
:4004000000000000000000000000000000000000000000000000000000000000000000000000000000000000000000000000000000000000000000000000000000000000BC
:40044000000000000000000000000000000000000000000000000000000000000000000000000000000000000000000000000000000000000000000000000000000000007C
:40048000000000000000000000000000000000000000000000000000000000000000000000000000000000000000000000000000000000000000000000000000000000003C
:4004C00000000000000000000000000000000000000000000000000000000000000000000000000000000000000000000000000000000000000000000000000000000000FC
:0200000490006A
:0400000000004005B7
:0200000490105A
:04000000BC90ACAF55
:0200000490303A
:0200000061326B
:0200000490402A
:4000000000000000000000000000000000000000000000000000000000000000000000000000000000000000000000000000000000000000000000000000000000000000C0
:400040000000000000000000000000000000000000000000000000000000000000000000000000000000000000000000000000000000000000000000000000000000000080
:400080000000000000000000000000000000000000000000000000000000000000000000000000000000000000000000000000000000000000000000000000000000000040
:4000C0000000000000000000000000000000000000000000000000000000000000000000000000000000000000000000000000000000000000000000000000000000000000
:0200000490501A
:0C00000000012E12306900012E1C919BA3
:00000001FF