:400000000080002011000000290500002905000008B5044B1A6803F53F5302331A6000F0A3FA00BFFA46004010B5054C237833B9044B13B10448AFF300800123237010BD7E
:400040004881FF1F00000000AC200000084B10B51BB108490848AFF300800848036803B910BD074B002BFBD0BDE81040184700BF000000004C81FF1FAC200000C880FF1F6A
:400080000000000000000000F8B562B600F09EFB00F03AFB00F062FC00F06EFC00F0B2FC00F062FE012000F013FE002304E000215D4A42F823100133632BF8DD5B4C5C4DF2
:4000C00022685C49284601F0CDFB0021084600F059FE284600F0EEFD2268574C524B53F822205649204601F0BDFB0021012000F049FE204600F0DEFD002000F045FCA0B15A
:4001000000F054FC494BD880C0F30B0242F440529A804B4C4B49204601F0A4FB204600F08BFC4FF4967000F0B3FC404BB3F9063040F6232293421CDC3C4A9268CAB93B4CCC
:400140000125A56000F038FF00F0A6FE002000F0CDFE00F023FF284600F0BAFD0021084600F010FE384800F0A5FD23682B442360C2E72E4A9268012ABED140F62322934276
:40018000BADD00F0B9FE294DE8600024AC6000F01FFE0A2000F07CFC00F094FE00F01AFFE86801F077F81EA3D3E9002301F0E8F801F0F8FA28612B681B4E46F82300204699
:4001C00000F0B2FC012000F083FD2146204600F0D9FD1E4800F06EFD4FF4FA6000F058FC012000F075FD124F2A681249384601F039FB2146204600F0C5FD384600F05AFDE3
:400200002B680D4D56F823200C49284601F02AFB2146012000F0B6FD284600F04BFD6BE79A9999999999C93FAC81FF1F6481FF1F8C81FF1FB02000004C83FF1FC42000008B
:400240003C83FF1FD8200000E0200000EC200000FEE700BFF0B40022174611E050F82760F3B226F0FF0608E001EB420511F812406D78A5550132013BDBB2002BF4D10137DD
:40028000152FEBD9F0BC704708B50A46002101F0E0FA08BDF8B51B4B1B78DBB21A4E3478E4B21A4F3D78EDB203F00701184A11701B090132137044F00303337045F00303AB
:4002C0003B700122134B1A704023134A137002321370102102F22512117020220F490A7004310B7060310A7090310B700C4B1A700A2000F0E3FB3D7034704422094B1A70F8
:40030000F8BD00BFCF010049F8460040F94600406E5800403D51004009590040345A00402B5B00407658004008B501F087FA08BD38B54FF49C72304B1A8018232F4A13709D
:4003400045F6BF51023211800232137004222C492C48FFF7E9FF02222B4B1A7008224FF040231A70032103F500731970274B1B78DBB227490B70274B1A8041F25122023BCB
:400380001A80002419250CE0234B1B7803F0010343EA440404F003044FF4F07000F028FE013D0DB1032CEFD115B90320FFF750FF1A4B4FF480721A8007221A7000221849A9
:4003C0000A704820023108701A700222033B1A7004220A331A70134A137843F003031370013A137843F001031370013A137843F08003137038BD00BF804000408240004034
:40040000FC030048004100400043004008010049A146004022420040254200400440004006400040A243004038B572B62D4A137843F00403137000240CE02B4D630019198D
:400440004A0011462A44084691882858FFF71CFF0134E4B2082CF0D924494FF09040FFF7F9FE234A137843F0020313701032137843F0020313701F4C237843F040032370FA
:40048000A2F58632513A137843F0100313700A2219491A48FFF748FF082219491948FFF743FF082218491948FFF73EFF082218491848FFF739FF184A137843F008031370D6
:4004C000164D61232B70FFF733FF81232B700122134B1A70FFF7DEFE0E2221461148FFF723FF38BDE8460040F82000005800004803500140A0430040D80300481051004098
:40050000E403004822510040EC03004832510040F403004842510040224300400048004004000840B043004008B501F05BF903680C2B00D1FEE7FEE708B5094B1A681044FB
:40054000084BC31A802B02DC054B186005E001F049F90C2303604FF0FF32104608BD00BFCC80FF1F8083FF1F08B5104E104D16E029686B68AC68002204E051F8040B43F8FC
:40058000040B0432A242F8D1E868002203E0002143F8041B04328242F9D11035013E002EE6D101F025F9FFF76FFDFEE701000000A021000008B5104A104B1A60104A136873
:4005C00043F40073136000230AE0032B03D80D4A52F8231000E00C490C4A42F8231001332F2BF2D90A4B1A780A4B1A70074A0A4B1A60FFF719FF08BD0004FA050CED00E00E
:4006000014ED00E000000000290500000080FF1FBC760040C080FF1F08ED00E0084A137843F0080313701032137843F00803137002F5A5521E32137843F080031370704783
:40064000A9430040044A137803F0FC0300F0030018431070704700BF0D58004010B487B00446194B03AA1868596803C2197A11706A4653F80C0F596803C21B7A1370082C42
:400680001ED812490B7803F08003DBB20B70087806AB1C4414F80C3C14F8182C920002F00C02134303430B70094A137803F0F3031370117814F8183C0B4343F00C031370C4
:4006C00007B010BC704700BF302100000E5800400D58004008B50C22084B1A70084A137843F0200313700022064B1A700120FFF7B5FF0320FFF7A6FF08BD00BF0C58004039
:400700000D5800400E58004008B5054B1B7823B9FFF7E0FF0122024B1A70FFF77FFF08BD7881FF1F054A137843F0080313701032137843F008031370704700BFA843004009
:40074000054B1A7802F0FD021A701A7800F0020010431870704700BF2C580040014B1870704700BF835B0040064B1B78C3F3810303F19243063393F83831DBB2024A1370AB
:40078000704700BF2C5800400B46004008B5064B1A7802F0F3021A701A7800F00C0010431870FFF7E1FF08BD2C58004010B50024054B1C7001331C700420FFF7E7FF2046AA
:4007C000FFF7BEFF10BD00BF2C58004008B5074B1B7823B9FFF7EAFF0122044B1A70FFF7A1FFFF20FFF7BAFF08BD00BF7981FF1F08B50A280FD00C2802D0082806D102E0E0
:400800004FF4805209E04FF4807206E0002000F03DF9002201E04FF480620021094B198042F2107303FB02F303F6C413064A82FB0302DB17C3EBE223044A1360044B198089
:4008400008BD00BF6C83FF1FAD8BDB687083FF1F6E83FF1F10B500F0D3FB04461E4A137843F0020313701032137843F0020313701A3A137843F0010313701032137843F0B0
:400880000103137002F5AA521A32137843F0030313701822114B1A70013B1A7842F040021A701A7802F0FC021A70C822053B1A700222A3F59753123B1A70094A137843F0F1
:4008C000080313700A2000F0F9F80122054B1A60204600F099FB10BDAB4300400E5900402F5B004080E200E010B504460A280DD00C2802D0082804D101E0C22207E04222A1
:4009000005E0002000F0C2F8C22200E08222034B1A702046FFF76CFF10BD00BF0A59004008B5102000F09AF80721002000F0E4F80749002000F0CCF8064A137843F0060314
:4009400013700C20FFF7D0FF0022034B1A8008BDC5090000095900407483FF1F08B5054B1B7823B9FFF7DCFF0122024B1A70FFF771FF08BD7A81FF1F024A137843F0010316
:40098000137070470859004010B5074B1B7813F0010401D10028F8D024B1012000F08EF8014B1B78204610BD09590040034B188880B2034B1B88C01A00B27047A25B004037
:4009C0006E83FF1F704700BF0622044B1A70472210331A7000224F331A7070472964004010B500F00DFB0446054A137843F01003137000F03DF8204600F006FB10BD00BFD7
:400A00009864004008B5054B1B7823B9FFF7DCFF0122024B1A70FFF7E3FF08BD7B81FF1F034B1B7813F0040FFAD1024B18707047686400404864004038B5074B1B782BB980
:400A400038BDFFF7EDFF0134A4B201E005460024285D0028F5D138BD7B81FF1F034B1A7800F0F80010431870704700BF02410040054A137843F0010313701032137843F012
:400A800001031370704700BFA243004001BE704710B5044605E0084B186800F0A9FAA4F50044B4F5004FF6D8034B586800FB04F000F09EFA10BD00BFD080FF1F08B5034B17
:400AC0001B7A00FB03F000F093FA08BDD080FF1F70B504460E46074B1D681F2802D90020FFF7D4FF04F01F04103455F8240045F8246070BD08ED00E038B504460D460729D5
:400B000002D90020FFF7C2FF1F2C02D90020FFF7BDFF04F01F0000F1604000F564406D01EDB2057038BD00BF044A137803F0FB03800000F0040018431070704740510040F7
:400B400010B50B4C237803F09F032370237803F0F00323702378184340F0100020700120FFF7ACFF237803F0EF03237010BD00BF2051004038B505460E4C237843F0200327
:400B80002370237803F0BF0323700020FFF796FF237803F0F003237023781D4345F0100525700120FFF78AFF237803F0EF03237038BD00BF2051004070B5354B1A7802F0E5
:400BC0008002D2B21A7033490A7802F0F00242F00F020A7001310A7802F0F0020A7001310A7802F0F0020A701A7802F0DF021A701A7842F040021A704FF4CA760020FFF78A
:400C00005DFF234D2B7843F010032B700120FFF755FF214B1C78E4B22B7803F0EF032B700020FFF74BFF04F00804E4B22B7843F010032B700120FFF741FF2B7803F0EF03E7
:400C40002B7014B90A20FFF739FF013E0CB1002ED4D10F4A137803F0BF031370137803F08003DBB213700232137803F0F00313700132137803F0F00343F00F0313700132F1
:400C8000137803F0F00343F00F03137070BD00BF20510040225100402151004010B50446FFF78AFF2009FFF765FF04F00F00FFF761FF10BD38B505460078012404E0FFF713
:400CC000EDFF285D0134E4B20028F8D138BD00BF10B50446FFF770FF2009FFF731FF04F00F00FFF72DFF10BD08B52820FFF7D0FE0320FFF725FF0520FFF7CAFE0320FFF75C
:400D00001FFF0F20FFF7C4FE0320FFF719FF0120FFF7BEFE0220FFF713FF0520FFF7B8FE0620FFF7D5FF0E20FFF7D2FF2C20FFF7CFFF0820FFF7CCFF0120FFF7C9FF0C20C6
:400D4000FFF7C6FF0320FFF7C3FF0520FFF7A0FE08BD00BF08B50C20FFF7BAFF0122014B1A7008BD7D81FF1F08B5054B5B7823B9FFF7BAFF0122024B5A70FFF7EBFF08BDE4
:400D80007D81FF1F08B5032819D8DFE800F002070D1381F08000FFF79BFF08BDA1F14000C0B2FFF795FF08BDA1F16C00C0B2FFF78FFF08BDA1F12C00C0B2FFF789FF08BD59
:400DC000024A137843F080031370704776650040024A137803F07F031370704776650040014B1880704700BF0C6A0040014B1880704700BF8C6A0040014B1880704700BF76
:400E00004C6A0040014B1870704700BF87650040014B1878704700BF67650040014B188880B27047AC6A004008B501E0FFF7F6FFFFF7EEFF10F0100FF8D108BD10B5144A81
:400E4000137803F0C00343F0090313702032137843F0010313700F4C237843F001032370C720FFF7BDFFC720FFF7C0FF6420FFF7C3FF0020FFF7C6FF00F0C2F8237843F054
:400E80001003237000F0C0F8FFF7CEFF10BD00BF766500409765004008B5054B1B7823B9FFF7CCFF0122024B1A70FFF789FF08BD7F81FF1F024A137843F0800313707047DF
:400EC00077650040024A137803F07F031370704777650040014B1870704700BF8B650040014B1878704700BF6B650040014B1860704700BF08650040024B1B78024B1868C4
:400F0000704700BF0865004048650040014B1868704700BF48650040014B1860704700BF28650040014B1860704700BF3865004008B501E0FFF7EAFFFFF7D2FF10F0400FC1
:400F4000F8D108BD08B5134A137803F0F80343F001031370137803F0FC031370FFF7E8FF6FF00100FFF7D8FF0020FFF7BFFF0020FFF7B0FFFFF7B4FF8020FFF7D3FF00F0F2
:400F80003FF8054A137843F01003137000F03CF808BD00BF776500409B65004008B5054B1B7823B9FFF7CEFF0122024B1A70FFF781FF08BD8081FF1F054A137843F00203AE
:400FC00013701032137843F002031370704700BFA2430040054A137803F0FD0313701032137803F0FD031370704700BFA24300400230800803D000BF01380046FCD17047CE
:40100000EFF3108072B6704780F31088704700BF81F0004102E000BF83F0004330B54FEA41044FEA430594EA050F08BF90EA020F1FBF54EA000C55EA020C7FEA645C7FEA06
:40104000655C00F0E2804FEA5454D4EB5555B8BF6D420CDD2C4480EA020281EA030382EA000083EA010180EA020281EA0303362D88BF30BD11F0004F4FEA01314FF4801CCA
:401080004CEA113102D0404261EB410113F0004F4FEA03334CEA133302D0524263EB430394EA050F00F0A780A4F10104D5F1200E0DDB02FA0EFC22FA05F2801841F100019C
:4010C00003FA0EF2801843FA05F359410EE0A5F120050EF1200E012A03FA0EFC28BF4CF0020C43FA05F3C01851EBE37101F0004507D54FF0000EDCF1000C7EEB00006EEBBC
:401100000101B1F5801F1BD3B1F5001F0CD349085FEA30004FEA3C0C04F101044FEA445212F5800F80F09A80BCF1004F08BF5FEA500C50F1000041EB045141EA050130BD5A
:401140005FEA4C0C404141EB010111F4801FA4F10104E9D191F0000F04BF01460020B1FA81F308BF2033A3F10B03B3F120020CDA0C3208DD02F1140CC2F10C0201FA0CF0F8
:4011800021FA02F10CE002F11402D8BFC2F1200C01FA02F120FA0CFCDCBF41EA0C019040E41AA2BF01EB0451294330BD6FEA04041F3C1CDA0C340EDC04F11404C4F120024A
:4011C00020FA04F001FA02F340EA030021FA04F345EA030130BDC4F10C04C4F1200220FA02F001FA04F340EA0300294630BD21FA04F0294630BD94F0000F83F4801306BFA2
:4012000081F480110134013D4EE77FEA645C18BF7FEA655C29D094EA050F08BF90EA020F05D054EA000C04BF1946104630BD91EA030F1EBF0021002030BD5FEA545C05D10E
:401240004000494128BF41F0004130BD14F580043CBF01F5801130BD01F0004545F0FE4141F470014FF0000030BD7FEA645C1ABF194610467FEA655C1CBF0B46024650EA57
:40128000013406BF52EA033591EA030F41F4002130BD00BF90F0000F04BF0021704730B54FF4806404F132044FF000054FF0000150E700BF90F0000F04BF0021704730B547
:4012C0004FF4806404F1320410F0004548BF40424FF000013EE700BF42004FEAE2014FEA31014FEA02701FBF12F07F4393F07F4F81F06051704792F0000F14BF93F07F4FB5
:40130000704730B54FF4607401F0004521F0004120E700BF50EA010208BF704730B54FF000050AE050EA010208BF704730B511F0004502D5404261EB41014FF4806404F1F5
:4013400032045FEA915C3FF4DCAE4FF003025FEADC0C18BF03325FEADC0C18BF033202EBDC02C2F1200300FA03FC20FA02F001FA03FE40EA0E0021FA02F11444C1E600BFE0
:4013800070B54FF0FF0C4CF4E06C1CEA11541DBF1CEA135594EA0C0F95EA0C0F00F0DEF82C4481EA030621EA4C5123EA4C5350EA013518BF52EA033541F4801143F4801301
:4013C00038D0A0FB02CE4FF00005E1FB02E506F00042E0FB03E54FF00006E1FB03569CF0000F18BF4EF0010EA4F1FF04B6F5007F64F5407404D25FEA4E0E6D4146EB06060A
:4014000042EAC62141EA55514FEAC52040EA5E504FEACE2EB4F1FD0C88BFBCF5E06F1ED8BEF1004F08BF5FEA500E50F1000041EB045170BD06F0004646EA010140EA0200BD
:4014400081EA0301B4EB5C04C2BFD4EB0C0541EA045170BD41F480114FF0000E013C00F3AB8014F1360FDEBF002001F0004170BDC4F10004203C35DA0C341BDC04F11404C4
:40148000C4F1200500FA05F320FA04F001FA05F240EA020001F0004221F0004110EBD37021FA04F642EB06015EEA430E08BF20EAD37070BDC4F10C04C4F1200500FA04F3BE
:4014C00020FA05F001FA04F240EA020001F0004110EBD37041F100015EEA430E08BF20EAD37070BDC4F1200500FA05F24EEA020E20FA04F301FA05F243EA020321FA04F0EC
:4015000001F0004121FA04F220EA020000EBD3705EEA430E08BF20EAD37070BD94F0000F0FD101F00046400041EB010111F4801F08BF013CF7D041EA060195F0000F18BF30
:40154000704703F00046520043EB030313F4801F08BF013DF7D043EA0603704794EA0C0F0CEA135518BF95EA0C0F0CD050EA410618BF52EA4306D1D181EA030101F0004132
:401580004FF0000070BD50EA410606BF1046194652EA430619D094EA0C0F02D150EA013613D195EA0C0F05D152EA03361CBF104619460AD181EA030101F0004141F0FE4134
:4015C00041F470014FF0000070BD41F0FE4141F4780170BD70B54FF0FF0C4CF4E06C1CEA11541DBF1CEA135594EA0C0F95EA0C0F00F0A7F8A4EB050481EA030E52EA033594
:401600004FEA013100F088804FEA03334FF0805545EA131343EA12634FEA022245EA111545EA10654FEA00260EF000419D4208BF964244F1FD0404F5407402D25B084FEA08
:401640003202B61A65EB03055B084FEA32024FF480104FF4002CB6EB020E75EB030E22BFB61A754640EA0C005B084FEA3202B6EB020E75EB030E22BFB61A754640EA5C0054
:401680005B084FEA3202B6EB020E75EB030E22BFB61A754640EA9C005B084FEA3202B6EB020E75EB030E22BFB61A754640EADC0055EA060E18D04FEA051545EA16754FEA21
:4016C00006164FEAC30343EA52734FEAC2025FEA1C1CC0D111F4801F0BD141EA00014FF000004FF0004CB6E711F4801F04BF01430020B4F1FD0C88BFBCF5E06F3FF6AFAE69
:40170000B5EB030C04BFB6EB020C5FEA500C50F1000041EB045170BD0EF0004E4EEA113114EB5C04C2BFD4EB0C0541EA045170BD41F480114FF0000E013C90E645EA060EC8
:401740008DE60CEA135594EA0C0F08BF95EA0C0F3FF43BAF94EA0C0F0AD150EA01347FF434AF95EA0C0F7FF425AF104619462CE795EA0C0F06D152EA03353FF4FDAE104686
:40178000194622E750EA410618BF52EA43067FF4C5AE50EA41047FF40DAF52EA43057FF4EBAE12E74A0011D212F5001211D20DD56FF47873B3EB62520ED44FEAC12343F0EA
:4017C000004343EA505323FA02F070474FF00000704750EA013002D14FF0FF3070474FF000007047014B1868704700BF4081FF1F0E4B70B51E460E4C0025E41AA410A542A6
:4018000004D056F8253098470135F8E700F0B6FC084B094C1E46E41AA4100025A54204D056F8253098470135F8E770BD8821000088210000882100009021000010B5431E67
:401840000A44914204D011F8014B03F8014FF8E710BD03460244934202D003F8011BFAE7704700000EB400B54FF402719CB0ADF814106FF00041049107914FF6FF711DABB6
:4018800002900690084853F8042BADF81610006802A9019300F064F8029B00221A701CB05DF804EB03B070474081FF1F2DE9F0478E6882469E420C46914698463ED88A89BB
:4018C00012F4906F3AD02568096902236F1A656905EB450595FBF3F57B1C43449D4238BF1D4653050FD5294600F040FB064698B13A462169FFF7A2FFA38923F4906343F0E0
:401900008003A38113E02A4600F08EFB064670B92169504600F0DEFA0C23CAF80030A3894FF0FF3043F04003A381BDE8F08726613E44266046466561ED1BA560464528BFF6
:40194000464649463246206800F0A8FAA36800209B1BA36023681E442660BDE8F08700002DE9F04F9DB003938B8980461C060D4616460DD50B695BB9402100F0F7FA286030
:40198000286118B90C23C8F80030CDE040236B610023099320238DF82930DFF89CB130238DF82A3037463C4614F8013B1BB9B7EB060910D003E0252BF9D02746F3E74B461C
:4019C000324629464046FFF771FF013000F0A780099B4B4409933B78002B00F0A08000234FF0FF3204930793059206938DF853301A930126052221784E4800F041FA671C3B
:401A0000049B38B14B4A3C46801A06FA00F018430490EFE7D90644BF20228DF853201A0744BF2B228DF8532022782A2A03D0079A00210A200BE0039A111D12680391002A98
:401A400010DA524243F00200079204900BE027463B780134303B092B03D800FB02320121F5E701B107923B782E2B1ED17B782A2B0AD1039B02371A1D1B680392002BB8BF6E
:401A80004FF0FF33059310E0002319460593781C0A2407463A780130303A092A03D804FB01210123F5E703B1059103223978224800F0E6F940B14023CBEB000003FA00F038
:401AC000049B013718430490397806221B487E1C8DF8281000F0D4F988B1194B33B9039B073323F007030833039314E003AB00932A46144B04A94046AFF3008007E003AB93
:401B000000932A460F4B04A9404600F093F8B0F1FF3F824603D0099B5344099342E7AB895B0601D4099801E04FF0FF301DB0BDE8F08F00BF472100004D21000051210000CE
:401B400000000000AD1800002DE9F04791461F460A698B6806469342B8BF1346C9F8003091F843200C46DDF8208012B10133C9F800302368990642BFD9F800300233C9F812
:401B80000030256815F0060510D104F1190A07E00123524639463046C04701301AD00135E368D9F800209B1A9D42F1DB94F843302268003318BF012392060FD5E118302057
:401BC00081F843005A1C94F845102244023382F8431003E04FF0FF30BDE8F08704F1430239463046C0470130F4D02268D9F80050E36802F00602042A08BF5D1B2269A368DF
:401C00000CBF25EAE57500259342C4BF9B1AED184FF000091A344D4509D00123224639463046C0470130D5D009F10109F3E70020BDE8F0872DE9F04317460A7E85B06E2AC5
:401C4000984606460C460C9B01F1430E00F0AE8011D8632A22D009D8002A00F0BB80582A40F0CA8081F84520834955E0642A1ED0692A1CD0C0E0732A00F0B08009D86F2A95
:401C80002ED0702A40F0B8800A6842F020020A603EE0752A24D0782A3AD0ADE01A6801F14205111D1960136884F84230A8E021681A6811F0800F02D0111D196008E011F0BA
:401CC000400F02F10401196002D0B2F9003000E01368002B3CDA2D225B4284F8432037E021681A6811F0800F02D0111D196007E011F0400F02F10401196001D0138800E0F1
:401D00001368227E5C496F2A14BF0A2208221BE078225A4984F845202268186812F0800F00F104051D6003D1550601D5038800E00368D00744BF42F0200222601BB922680D
:401D400022F0200222601022002084F8430001E049490A226568002DA56008DB206820F0040020602BB9002D7DD175460CE0002B79D07546B3FBF2F002FB1033CB5C05F8D6
:401D8000013D03460028F5D1082A0BD12368DA0708D5236962689A42DEBF302305F8013C05F1FF35C5EB0E0323612EE008681A6810F0800F496903D0101D1860136808E070
:401DC00010F0400F02F104001860136801D0198000E0196000232361754616E01A68111D1960156800216268284600F049F808B1401B6060636804E004F1420584F84220C2
:401E000001232361002384F84330CDF800803B4603AA21463046FFF797FE013002D14FF0FF3026E023692A4639463046C0470130F5D023689B0710D5002504F1190907E072
:401E400001234A4639463046C0470130E7D00135E368039A9B1A9D42F2DBE068039B9842B8BF184605E00B7804F1420584F842308AE705B0BDE8F0835821000069210000E3
:401E800010B5C9B202449042034605D01C7801308C42F8D1184610BD002010BD884210B501EB020301D8421E0BE09842FBD28118D21AD34204D013F8014D01F8014DF8E700
:401EC00010BD994204D011F8014B02F8014FF8E710BD000038B50546002944D051F8043C0C1F002BB8BFE41800F0D4F81E4A1368114613B96360146030E0A3420DD92268F6
:401F0000A018834201BF18685B681218226063600C6023E0A24203D813465A68002AF9D118681918A1420BD12168014458188242196013D110685268014419605A600DE00F
:401F400002D90C232B6009E021686018824201BF106852680918216062605C602846BDE8384000F098B838BD8881FF1F70B5CD1C25F0030508350C2D38BF0C25002D0646E3
:401F800001DBA94202D90C23336046E000F082F8234B1C681A462146A1B10B685B1B0ED40B2B03D90B60CC18CD501EE08C420BBF63684B681360636018BF0C4615E00C461F
:401FC0004968E9E7174C23681BB9304600F052F820602946304600F04DF8431C18D0C41C24F00304A0420DD12560304600F053F804F10B00231D20F00700C31A0ED05A426E
:40200000E25070BD211A304600F034F80130EBD10C233360304600F03EF8002070BD00BF8881FF1F8481FF1FF8B5074615460E4621B91146BDE8F840FFF798BF1AB9FFF706
:4020400049FF2846F8BD00F027F885420ED929463846FFF78BFF044650B131462A46FFF7EDFB31463846FFF735FF01E03046F8BD2046F8BD38B5064C0023054608462360F7
:40208000FEF75AFA431C02D1236803B12B6038BD7883FF1F7047704751F8040C0028BEBF091851F8043CC0180438704700000000546F74616C20616C61726D733A20257554
:4020C000000000006C61737420616C61726D3A20257520730000000025780D0A00000000456D657267656E63792100005269736B2046697865640000005100401000505119
:4021000000402000C05100401000F0510040100000000140001000140140000800400140000A004C0140000200500140200000000111213141615363730000000809010192
:4021400005070704044300232D302B2000686C4C0065666745464700303132333435363738394142434445460030313233343536373839616263646566000000F8B500BFA2
:40218000F8BC08BC9E4670474D000000B5050000F8B500BFF8BC08BC9E46704729000000B0210000C880FF1F8000000038020000000000008083FF1F0000E02EC05D000020
:4021C0001800000000366E010000000000000000000000000000000000000000000000000000000000000000452100000000000000000000000000000000000000000000BC
:4022000000000000000000000000000000000000000000000000000000000000000000000000000000000000E080FF1F000000000000000000000000000000000000000020
:40224000000000000000000000000000000000000000000000000000000000000000000000000000000000000000000000000000000000000000000000000000000000005E
:40228000000000000000000000000000000000000000000000000000000000000000000000000000000000000000000000000000000000000000000000000000000000001E
:4022C00000000000000000000000000000000000000000000000000000000000000000000000000000000000000000000000000000000000000000000000000000000000DE
:40230000000000000000000000000000000000000000000000000000000000000000000000000000000000000000000000000000000000000000000000000000000000009D
:020000040003F7
:0200000480007A
:40000000035200400164004002650040580801402F090140021501404A160140221701402F18014009190140451A0140291B0140044001400241014002420140024301402E
:400040000448014002490140074C0140014D01400550014001510140080409042104880F870D8B67020C0580063307150A08144C15431613173419431B1C1E101F282080F2
:40008000210323042471260E27202871292A2A062B54306031C0320F330F348035383610380239023A083B283E514026410346BE47C0482C49FF4AFF4BFF4EF04F44500C05
:4000C0005401580459045A045B045F0166C06A406B028009821084108A03941C96029814A40CA501A611A810AA0CB21FB701BF40C004C640C9FFCA07CBFFCC40CD20CEF081
:40010000CF05D008D804D904DA04DF01E040E1A8E240E3200010036004200504074009180E200F0213281680172A181019081C401D081E281F482001276829082E022F2896
:4001400037683F044040472849044BC44E085010520853205510568257015C205E085F42C07EC2A6C476CAE2CC70CE40D061D220D6F0B401EE082E0130013601401041061F
:4001800049FF4AFF4BFF4DA04F045018528058045A045B045C015D115F01604062C06440654066C068C06AC06CC06EC082039201970298019B019E04A501A60CAF02B00484
:4001C000B208B302B402B601B701BE40BF04C040C106C5D1C702C813C9FFCAFFCBFFCDAFCE0FCF04D018D280D405D804D904DA04DB04DC11DD11DF01E040E2C0E440E540D3
:40020000E6C0E8C0EAC0ECC0EEC0010209820A0410201780180119061A041C401DC0224429443020320840404580482049014A084E08520859015A88710277808502C0082F
:40024000C20BC484CA0ACC06D011D224D60B4024410149FF4AFF4BFF4DA04F0150185A045D015F016040628064406540668068406A506BA86C406D206E506FA8C045C101CE
:40028000C9FFCAFFCBFFCDAFCE07CF01D018DA04DD01DF01E040E280E440E540E680E840EA50EBA8EC40ED20EE50EFA84182458147204802A820AA02B401D0B9D20840659F
:4002C000410149FF4AFF4BFF4DAF4E074F0150185A045D015F016040628064406540668068406A506BA86C406D206E506FA8830194019E02A501AE05B001B101B204B402A7
:40030000B880BE41BF01C064C101C55CC620C70EC83BC9FFCAFFCBFFCDAFCE07CF01D018D407D804D904DA04DB04DC01DD11DF01E040E280E440E540E680E840EA50EBA87B
:40034000EC40ED20EE50EFA80E100F0216011D821E101F1027802F103F0241804581480A4C084F0654025501560957105E045F9063306608670489028A04A008A402A581C8
:40038000B408B502B720C2A0C480CA40CE80D098D22CD670D860EC10EE0833205940CC10D4809D40A7209D40A7209D40A72085409D40A720E610AF20EE101F805502A10252
:4003C000B502C601D604EC08AF8000010C0110021A021C02000300000400000F0F00040000000000007F7F0000000000000000000000010000040400040000000E001801CD
:4004000000000000000000000000000000000000000000000000000000000000000000000000000000000000000000000000000000000000000000000000000000000000BC
:40044000000000000000000000000000000000000000000000000000000000000000000000000000000000000000000000000000000000000000000000000000000000007C
:40048000000000000000000000000000000000000000000000000000000000000000000000000000000000000000000000000000000000000000000000000000000000003C
:4004C00000000000000000000000000000000000000000000000000000000000000000000000000000000000000000000000000000000000000000000000000000000000FC
:0200000490006A
:0400000000004005B7
:0200000490105A
:04000000BC90ACAF55
:0200000490303A
:020000003AEDD7
:0200000490402A
:4000000000000000000000000000000000000000000000000000000000000000000000000000000000000000000000000000000000000000000000000000000000000000C0
:400040000000000000000000000000000000000000000000000000000000000000000000000000000000000000000000000000000000000000000000000000000000000080
:400080000000000000000000000000000000000000000000000000000000000000000000000000000000000000000000000000000000000000000000000000000000000040
:4000C0000000000000000000000000000000000000000000000000000000000000000000000000000000000000000000000000000000000000000000000000000000000000
:0200000490501A
:0C00000000012E12306900012E206B560A
:00000001FF