:400000000080002011000000950500009505000008B5044B1A6803F53F5302331A6000F0D9FA00BFFA46004010B5054C237833B9044B13B10448AFF300800123237010BD70
:400040004881FF1F00000000C01E0000084B10B51BB108490848AFF300800848036803B910BD074B002BFBD0BDE81040184700BF000000004C81FF1FC01E0000C880FF1F46
:400080000000000038B562B601F03CF800F0D8FF01F000F901F00CF900F082FD00F04CFF00F0CAFB01F056FA01F0F2F901F08AF900F060FB00F08EFC00F09AFC00F0DEFC6A
:4000C00000F054FE012000F005FE012488E0012C18D1002001F0F4F878B101F003F9C0F30B0040F44052404B1A80404D4049284601F0C2FA284600F0DBFC4FF4FA7000F048
:4001000003FD6CE0022C4DD100F0A4FE01F054FA00F006FF0DE0344B5B68012B09D10025314B5D6000F050FE324B1D60284600F0ABFE304B1B68012BEDD02AE02A4B5B6866
:40014000012B26D1284D00236B6000F03DFE6B892B8100F09FFE00B26881B0F5805F01DB2A896A81002000F08FFE1F4BB3F90A20C2F30B0242F400521F4B1A801F4D1C490C
:40018000284601F079FA284600F092FC0122194B1A60184B1B68002BD0D04FF4FA7000F0B3FC1CE0032C1AD1002000F029FC18B100F038FC124B1880114B1A88C2F30B0296
:4001C00042F480521A800F4D0949284601F054FA284600F06DFC4FF4FA7000F095FC0134032C7FF774AF70E76481FF1FB081FF1FC41E0000CC80FF1F9881FF1F8881FF1FBD
:40020000AC81FF1F9C81FF1FFEE700BFF0B40022174611E050F82760F3B226F0FF0608E001EB420511F812406D78A5550132013BDBB2002BF4D101371C2FEBD9F0BC704706
:4002400008B50A46002101F00EFA08BD2DE9F8433D4B1B78DBB23D4E3478E4B23C4F3D78EDB203F007013B4A11701B090132137044F00303337045F003033B7042F2010218
:40028000354B1A804FF0020E113383F800E00C2203F21F731A704023304A13700232137006321370023213702020F53210700432137080222A490A704FF0010C0B3181F83E
:4002C00000C01021DFF8A88088F8001008F1040888F8002008F1680888F800E008F1100888F8001008F1080888F800104FF00808DFF8809089F8008009F1040989F8001007
:40030000184981F800E003310B70013181F8008007310B700131087024310B70023181F800C01E310A7004310B700F4B1A70033318700A2000F0FEFB3D70347044220B4B55
:400340001A70BDE8F88300BFCF010049F8460040F94600406E5800403C51004001590040085A0040D05A0040285B004076580040145A0040C05A004008B501F069F908BDD7
:4003800038B50122324B1A801823324A1370FF2102321180023213704FF49C71023211800232137008222C492C48FFF7E5FF02222B4B1A7008224FF040231A70032103F5F1
:4003C00000731970274B1B78DBB227490B70274B1A8041F25122023B1A80002419250CE0234B1B7803F0010343EA440404F003044FF4F07001F0F0F8013D0DB1032CEFD1DE
:4004000015B90320FFF700FF1A4B4FF480721A8007221A70002218490A704820023108701A700222033B1A7004220A331A70134A137843F007031370013A137843F00303D5
:400440001370013A137843F08003137038BD00BF804000408240004034040048004100400043004008010049A146004022420040254200400440004006400040A2430040CD
:4004800038B572B6324A137843F00403137000240CE0304D630019194A0011462A44084691882858FFF7CCFE0134E4B2082CF0D929494FF09040FFF7A9FE0322274B1A8074
:4004C00040F2032204331A8002F1804202F5A732137843F0020313701032137843F0020313701F4C237843F040032370A2F58632513A137843F0100313700A2219491A4854
:40050000FFF73AFF082219491948FFF735FF082218491948FFF730FF082218491848FFF72BFF184A137843F008031370164D61232B70FFF725FF81232B700122134B1A70C5
:40054000FFF784FE0E2221461148FFF715FF38BDE8460040C81E00007400004848580040A043004010040048105100401C0400482251004024040048325100402C0400483E
:4005800042510040224300400048004004000840B043004008B501F02FF803680C2B00D1FEE7FEE708B5094B1A681044084BC31A802B02DC054B186005E001F01DF80C2328
:4005C00003604FF0FF32104608BD00BFD080FF1FE081FF1F08B5104E104D16E029686B68AC68002204E051F8040B43F8040B0432A242F8D1E868002203E0002143F8041B20
:4006000004328242F9D11035013E002EE6D100F0F9FFFFF737FDFEE701000000881F000008B5104A104B1A60104A136843F40073136000230AE0032B03D80D4A52F8231026
:4006400000E00C490C4A42F8231001332F2BF2D90A4B1A780A4B1A70074A0A4B1A60FFF70FFF08BD0004FA050CED00E014ED00E000000000950500000080FF1FBC76004013
:40068000C080FF1F08ED00E0084A137843F0010313701032137843F00103137002F5A5521E32137843F0800313707047A9430040044A137803F0FC0300F00300184310706B
:4006C000704700BF0158004010B487B00446194B03AA1868596803C2197A11706A4653F80C0F596803C21B7A1370082C1ED812490B7803F08003DBB20B70087806AB1C44B0
:4007000014F80C3C14F8182C920002F00C02134303430B70094A137803F0F3031370117814F8183C0B4343F00C03137007B010BC704700BF001F00000258004001580040DB
:4007400008B50C22084B1A70084A137843F0200313700022064B1A700320FFF7B5FF0320FFF7A6FF08BD00BF00580040015800400258004008B5054B1B7823B9FFF7E0FFD3
:400780000122024B1A70FFF77FFF08BD7081FF1F054A137843F0040313701032137843F004031370704700BFA8430040054B1A7802F0FD021A701A7800F002001043187079
:4007C000704700BF28580040014B1870704700BF825B0040064B1B78C3F3810303F19243063393F82831DBB2024A1370704700BF285800400A46004008B5064B1A7802F0A4
:40080000F3021A701A7800F00C0010431870FFF7E1FF08BD2858004008B50023054A1370013213700420FFF7E7FF0220FFF7BEFF08BD00BF2858004008B5074B1B7823B976
:40084000FFF7EAFF0122044B1A70FFF7A1FFD020FFF7BAFF08BD00BF7181FF1F08B50A2813D00C2802D0082809D104E04FF400624FF480510DE080224FF4807109E0002089
:4008800000F040F90022114603E04FF400724FF480610020094B188042F2107303FB01F303F6C413064981FB0301DB17C3EBE12304490B6012B2044B1A8008BDC081FF1F59
:4008C000AD8BDB68C481FF1FC281FF1F38B500F08BFE04461E4A137843F0010313701032137843F0010313701A3A137843F0020313701032137843F00203137002F5AA52C0
:400900001232137843F0030313701822114B1A70013B1A7842F040021A701A7802F0FC021A70C822053B1A700225A3F597530C3B1D70094A137843F0080313700A2000F04A
:40094000F9F8064B1D60204600F052FE38BD00BFAB43004006590040275B004080E200E010B504460A280DD00C2802D0082804D101E0C22207E0422205E0002000F0C2F8A5
:40098000C22200E08222034B1A702046FFF766FF10BD00BF0259004008B5102000F09AF80721012000F0E4F80749012000F0CCF8064A137843F0060313700C20FFF7D0FFDB
:4009C0000022034B1A8008BD3D0A000001590040C881FF1F08B5054B1B7823B9FFF7DCFF0122024B1A70FFF771FF08BD7281FF1F024A137843F0010313707047005900407C
:400A000010B5074B1B7813F0010401D10028F8D024B1012000F08EF8014B1B78204610BD01590040034B188880B2034B1B88C01A00B27047A05B0040C281FF1F704700BFC4
:400A40000622044B1A70472210331A7000224F331A7070472965004010B500F0C5FD0446054A137843F01003137000F03DF8204600F0BEFD10BD00BF9865004008B5054B1C
:400A80001B7823B9FFF7DCFF0122024B1A70FFF7E3FF08BD7381FF1F034B1B7813F0040FFAD1024B18707047686500404865004038B5074B1B782BB938BDFFF7EDFF013443
:400AC000A4B201E005460024285D0028F5D138BD7381FF1F034B1A7800F0F80010431870704700BF06410040054A137843F0040313701032137843F004031370704700BF9F
:400B0000A243004001BE704710B5044605E0084B186800F061FDA4F50044B4F5004FF6D8034B586800FB04F000F056FD10BD00BFD480FF1F08B5034B1B7A00FB03F000F0A6
:400B40004BFD08BDD480FF1F70B504460E46074B1D681F2802D90020FFF7D4FF04F01F04103455F8240045F8246070BD08ED00E038B504460D46072902D90020FFF7C2FF56
:400B80001F2C02D90020FFF7BDFF04F01F0000F1604000F564406D01EDB2057038BD00BF054A137843F0010313701032137843F001031370704700BFA243004010B50B4CF8
:400BC000237803F09F032370237803F0F00323702378184340F0100020700120FFF7AAFF237803F0EF03237010BD00BF2051004070B5354B1A7802F08002D2B21A70334913
:400C00000A7802F0F00242F00F020A7001310A7802F0F0020A7001310A7802F0F0020A701A7802F0DF021A701A7842F040021A704FF4CA760020FFF77DFF234D2B7843F093
:400C400010032B700120FFF775FF214B1C78E4B22B7803F0EF032B700020FFF76BFF04F00804E4B22B7843F010032B700120FFF761FF2B7803F0EF032B7014B90A20FFF761
:400C800059FF013E0CB1002ED4D10F4A137803F0BF031370137803F08003DBB213700232137803F0F00313700132137803F0F00343F00F0313700132137803F0F00343F075
:400CC0000F03137070BD00BF20510040225100402151004010B50446FFF78AFF2009FFF76DFF04F00F00FFF769FF10BD08B52820FFF70AFF0320FFF761FF0520FFF704FF7B
:400D00000320FFF75BFF0F20FFF7FEFE0320FFF755FF0120FFF7F8FE0220FFF74FFF0520FFF7F2FE0620FFF7D5FF0E20FFF7D2FF2C20FFF7CFFF0820FFF7CCFF0120FFF73F
:400D4000C9FF0C20FFF7C6FF0320FFF7C3FF0520FFF7DAFE08BD00BF08B50C20FFF7BAFF0122014B1A7008BD7581FF1F08B5054B5B7823B9FFF7BAFF0122024B5A70FFF76D
:400D8000EBFF08BD7581FF1F024A137843F080031370704776640040014B1880704700BF0C680040014B1880704700BF8C680040014B1880704700BF4C680040014B1870D1
:400DC000704700BF87640040014B1878704700BF67640040014B188880B27047AC68004008B501E0FFF7F6FFFFF7EEFF10F0100FF8D108BD10B5154A137803F0C00343F01B
:400E00000A0313702032137843F001031370104C237843F0010323704AF6F560FFF7BCFF4AF6F560FFF7BEFF41F27F10FFF7C0FF0120FFF7C3FF00F0D7FB237843F0100349
:400E4000237000F0D5FBFFF7CBFF10BD766400409764004008B5054B1B7823B9FFF7CAFF0122024B1A70FFF78FFF08BD7781FF1F014B1870704700BF87650040014B187857
:400E8000704700BF67650040014B1880704700BF0C6A0040024B1B78024B188880B27047066500408C6A0040014B188880B270478C6A0040014B1880704700BF4C6A0040AE
:400EC000014B1880704700BF6C6A004008B501E0FFF7EAFFFFF7D2FF10F0400FF8D108BD08B5FFF7F3FF40F6FF70FFF7E3FF0020FFF7CAFF0020FFF7BBFFFFF7BFFF40F6A6
:400F0000FF70FFF7DDFF00F06FFB044A137843F01003137000F06CFB08BD00BF9765004008B5044B1B7823B9FFF7DAFF0122014B1A7008BD7881FF1F054A137843F002032C
:400F400013701032137843F002031370704700BFA2430040084A137843F0020313701032137843F00203137002F5A5521E32137843F0800313707047A9430040044A1378ED
:400F800003F0FC0300F0030018431070704700BF0558004010B487B00446194B03AA1868596803C2197A11706A4653F80C0F596803C21B7A1370082C1ED812490B7803F03F
:400FC0008003DBB20B70087806AB1C4414F80C3C14F8182C920002F00C02134303430B70094A137803F0F3031370117814F8183C0B4343F00C03137007B010BC704700BF49
:40100000181F0000065800400558004008B50C22084B1A70084A137843F0200313700022064B1A700120FFF7B5FF0320FFF7A6FF08BD00BF045800400558004006580040DF
:4010400008B5054B1B7823B9FFF7E0FF0122024B1A70FFF77FFF08BD7981FF1F054A137843F0080313701032137843F008031370704700BFA8430040054B1A7802F0FD0237
:401080001A701A7800F0020010431870704700BF2C580040014B1870704700BF835B0040064B1B78C3F3810303F19243063393F83831DBB2024A1370704700BF2C580040FB
:4010C0000B46004008B5064B1A7802F0F3021A701A7800F00C0010431870FFF7E1FF08BD2C58004010B50024054B1C7001331C700420FFF7E7FF2046FFF7BEFF10BD00BF5C
:401100002C58004008B5074B1B7823B9FFF7EAFF0122044B1A70FFF7A1FFFF20FFF7BAFF08BD00BF7A81FF1F08B50A280FD00C2802D0082806D102E04FF4805209E04FF493
:40114000807206E00020FFF7DDFC002201E04FF480620021094B198042F2107303FB02F303F6C413064A82FB0302DB17C3EBE223044A1360044B198008BD00BFD481FF1FE1
:40118000AD8BDB68CC81FF1FD081FF1F10B500F02BFA04461E4A137843F0020313701032137843F0020313701A3A137843F0010313701032137843F00103137002F5AA526D
:4011C0001A32137843F0030313701822114B1A70013B1A7842F040021A701A7802F0FC021A70C822053B1A700222A3F59753123B1A70094A137843F0080313700A20FFF774
:4012000099FC0122054B1A60204600F0F1F910BDAB4300400E5900402F5B004080E200E010B504460A280DD00C2802D0082804D101E0C22207E0422205E00020FFF762FCAC
:40124000C22200E08222034B1A702046FFF76CFF10BD00BF0A59004008B5102000F050F807210020FFF784FC07490020FFF76CFC064A137843F0060313700C20FFF7D0FFFC
:401280000022034B1A8008BDFD12000009590040D281FF1F08B5054B1B7823B9FFF7DCFF0122024B1A70FFF771FF08BD7B81FF1F024A137843F001031370704708590040C8
:4012C00010B5074B1B7813F0010401D10028F8D024B10120FFF72EFC014B1B78204610BD09590040034B188880B2034B1B88C01A00B27047A25B0040D081FF1F704700BF3A
:40130000034B1A7800F0F80010431870704700BF02410040054A137843F0040313701032137843F004031370704700BFA74300400F490B7803F0FC0200F0030313430B70BD
:4013400001280AD10B4B1B78DBB20B4A13700B4B1B78DBB2013213707047094B1B78DBB2054A1370074B1B78DBB201321370704742580040120100493446004016010049C3
:40138000B1010049B901004908B50120FFF7D0FF0B4B1A7842F020021A701A7802F0FB021A701A7842F008021A7003F295231A7802F0E7021A701A7842F010021A7008BD9A
:4013C0004258004008B5054B1B7823B9FFF7DCFF0122024B1A70FFF79DFF08BD7C81FF1F054A137843F0010313701032137843F001031370704700BFA74300400F490B78C4
:4014000003F0FC0200F0030313430B7001280AD10B4B1B78DBB20B4A13700B4B1B78DBB2013213707047094B1B78DBB2054A1370074B1B78DBB201321370704740580040C2
:40144000100100493046004014010049AD010049B501004908B50120FFF7D0FF0B4B1A7842F020021A701A7802F0FB021A701A7842F008021A7003F287231A7802F0E70230
:401480001A701A7842F010021A7008BD4058004008B5054B1B7823B9FFF7DCFF0122024B1A70FFF79DFF08BD7D81FF1F054A137843F0010313701032137843F001031370D0
:4014C000704700BFA8430040054B1A7802F0FD021A701A7800F0020010431870704700BF20580040014B1870704700BF805B0040064B1B78C3F3810303F19243063393F851
:401500002031DBB2024A1370704700BF205800400846004008B5064B1A7802F0F3021A701A7800F00C0010431870FFF7E1FF08BD2058004008B50023054A1370013213700D
:401540000420FFF7E7FF0220FFF7BEFF08BD00BF2058004008B5074B1B7823B9FFF7EAFF0122044B1A70FFF7A1FF6820FFF7BAFF08BD00BF7E81FF1F0122014B1A607047F3
:401580006881FF1F014B1B689864704708ED00E04001C0B2014B1870704700BF02E400E00422014B1A60704700E100E00422014B1A60704780E100E008B5FFF7F7FF0448CD
:4015C000FFF7E0FF0720FFF7E3FFFFF7E9FF08BD79150000000000000230800803D000BF01380046FCD17047EFF3108072B6704780F31088704700BF014B1868704700BF83
:401600004481FF1F0E4B70B51E460E4C0025E41AA410A54204D056F8253098470135F8E700F0A0FC084B094C1E46E41AA4100025A54204D056F8253098470135F8E770BD74
:40164000701F0000701F0000701F0000781F000010B5431E0A44914204D011F8014B03F8014FF8E710BD03460244934202D003F8011BFAE7704700000EB400B54FF40271AD
:401680009CB0ADF814106FF00041049107914FF6FF711DAB02900690084853F8042BADF81610006802A9019300F064F8029B00221A701CB05DF804EB03B070474481FF1F75
:4016C0002DE9F0478E6882469E420C46914698463ED88A8912F4906F3AD02568096902236F1A656905EB450595FBF3F57B1C43449D4238BF1D4653050FD5294600F040FB66
:40170000064698B13A462169FFF7A2FFA38923F4906343F08003A38113E02A4600F08EFB064670B92169504600F0DEFA0C23CAF80030A3894FF0FF3043F04003A381BDE830
:40174000F08726613E44266046466561ED1BA560464528BF464649463246206800F0A8FAA36800209B1BA36023681E442660BDE8F08700002DE9F04F9DB003938B89804660
:401780001C060D4616460DD50B695BB9402100F0F7FA2860286118B90C23C8F80030CDE040236B610023099320238DF82930DFF89CB130238DF82A3037463C4614F8013B52
:4017C0001BB9B7EB060910D003E0252BF9D02746F3E74B46324629464046FFF771FF013000F0A780099B4B4409933B78002B00F0A08000234FF0FF320493079305920693E4
:401800008DF853301A930126052221784E4800F041FA671C049B38B14B4A3C46801A06FA00F018430490EFE7D90644BF20228DF853201A0744BF2B228DF8532022782A2A67
:4018400003D0079A00210A200BE0039A111D12680391002A10DA524243F00200079204900BE027463B780134303B092B03D800FB02320121F5E701B107923B782E2B1ED1AE
:401880007B782A2B0AD1039B02371A1D1B680392002BB8BF4FF0FF33059310E0002319460593781C0A2407463A780130303A092A03D804FB01210123F5E703B10591032230
:4018C0003978224800F0E6F940B14023CBEB000003FA00F0049B013718430490397806221B487E1C8DF8281000F0D4F988B1194B33B9039B073323F007030833039314E0AE
:4019000003AB00932A46144B04A94046AFF3008007E003AB00932A460F4B04A9404600F093F8B0F1FF3F824603D0099B5344099342E7AB895B0601D4099801E04FF0FF30CE
:401940001DB0BDE8F08F00BF2F1F0000351F0000391F000000000000C11600002DE9F04791461F460A698B6806469342B8BF1346C9F8003091F843200C46DDF8208012B19F
:401980000133C9F800302368990642BFD9F800300233C9F80030256815F0060510D104F1190A07E00123524639463046C04701301AD00135E368D9F800209B1A9D42F1DB8E
:4019C00094F843302268003318BF012392060FD5E118302081F843005A1C94F845102244023382F8431003E04FF0FF30BDE8F08704F1430239463046C0470130F4D02268CE
:401A0000D9F80050E36802F00602042A08BF5D1B2269A3680CBF25EAE57500259342C4BF9B1AED184FF000091A344D4509D00123224639463046C0470130D5D009F101096F
:401A4000F3E70020BDE8F0872DE9F04317460A7E85B06E2A984606460C460C9B01F1430E00F0AE8011D8632A22D009D8002A00F0BB80582A40F0CA8081F84520834955E058
:401A8000642A1ED0692A1CD0C0E0732A00F0B08009D86F2A2ED0702A40F0B8800A6842F020020A603EE0752A24D0782A3AD0ADE01A6801F14205111D1960136884F842306F
:401AC000A8E021681A6811F0800F02D0111D196008E011F0400F02F10401196002D0B2F9003000E01368002B3CDA2D225B4284F8432037E021681A6811F0800F02D0111DDB
:401B0000196007E011F0400F02F10401196001D0138800E01368227E5C496F2A14BF0A2208221BE078225A4984F845202268186812F0800F00F104051D6003D1550601D586
:401B4000038800E00368D00744BF42F0200222601BB9226822F0200222601022002084F8430001E049490A226568002DA56008DB206820F0040020602BB9002D7DD1754603
:401B80000CE0002B79D07546B3FBF2F002FB1033CB5C05F8013D03460028F5D1082A0BD12368DA0708D5236962689A42DEBF302305F8013C05F1FF35C5EB0E0323612EE071
:401BC00008681A6810F0800F496903D0101D1860136808E010F0400F02F104001860136801D0198000E0196000232361754616E01A68111D1960156800216268284600F094
:401C000049F808B1401B6060636804E004F1420584F8422001232361002384F84330CDF800803B4603AA21463046FFF797FE013002D14FF0FF3026E023692A4639463046C8
:401C4000C0470130F5D023689B0710D5002504F1190907E001234A4639463046C0470130E7D00135E368039A9B1A9D42F2DBE068039B9842B8BF184605E00B7804F14205E2
:401C800084F842308AE705B0BDE8F083401F0000511F000010B5C9B202449042034605D01C7801308C42F8D1184610BD002010BD884210B501EB020301D8421E0BE09842C1
:401CC000FBD28118D21AD34204D013F8014D01F8014DF8E710BD994204D011F8014B02F8014FF8E710BD000038B50546002944D051F8043C0C1F002BB8BFE41800F0D4F8E0
:401D00001E4A1368114613B96360146030E0A3420DD92268A018834201BF18685B681218226063600C6023E0A24203D813465A68002AF9D118681918A1420BD12168014497
:401D400058188242196013D110685268014419605A600DE002D90C232B6009E021686018824201BF106852680918216062605C602846BDE8384000F098B838BD8481FF1F03
:401D800070B5CD1C25F0030508350C2D38BF0C25002D064601DBA94202D90C23336046E000F082F8234B1C681A462146A1B10B685B1B0ED40B2B03D90B60CC18CD501EE09B
:401DC0008C420BBF63684B681360636018BF0C4615E00C464968E9E7174C23681BB9304600F052F820602946304600F04DF8431C18D0C41C24F00304A0420DD1256030469D
:401E000000F053F804F10B00231D20F00700C31A0ED05A42E25070BD211A304600F034F80130EBD10C233360304600F03EF8002070BD00BF8481FF1F8081FF1FF8B50746FA
:401E400015460E4621B91146BDE8F840FFF798BF1AB9FFF749FF2846F8BD00F027F885420ED929463846FFF78BFF044650B131462A46FFF7EDFB31463846FFF735FF01E0EA
:401E80003046F8BD2046F8BD38B5064C0023054608462360FEF786FB431C02D1236803B12B6038BDD881FF1F7047704751F8040C0028BEBF091851F8043CC018043870479F
:401EC0000000000025780000005100401000505100402000C05100401000F0510040100000000140001000140140000800400140000A004C01400002005001402000000038
:401F00000111213141615363730000000809010105070704040000000111213141615363730000000809010105070704044300232D302B2000686C4C0065666745464700B5
:401F4000303132333435363738394142434445460030313233343536373839616263646566000000F8B500BFF8BC08BC9E4670474D00000021060000F8B500BFF8BC08BC86
:401F80009E46704729000000981F0000C880FF1F80000000980000000000000001000000E081FF1F0000E02EC05D00001800000000366E01000000000000000000000000C0
:401FC00000000000000000000000000000000000000000002D1F00000000000000000000000000000000000000000000000000000000000000000000000000000000000095
:402000000000000000000000000000000000000000000000E480FF1F000000000000000000000000000000000000000000000000000000000000000000000000000000001E
:402040000000000000000000000000000000000000000000000000000000000000000000000000000000000000000000000000000000000000000000000000000000000060
:402080000000000000000000000000000000000000000000000000000000000000000000000000000000000000000000000000000000000000000000000000000000000020
:4020C00000000000000000000000000000000000000000000000000000000000000000000000000000000000000000000000000000000000000000000000000000000000E0
:40210000000000000000000000000000000000000000000000000000000000000000000000000000000000000000000000000000000000000000000000000000000000009F
:020000040003F7
:0200000480007A
:4000000002520040015B00400164004002650040480601402807014002090140040A0140010B0140041501404B1601402C170140611801403B190140041B014005400140A8
:40004000034101400342014008430140024401400145014005460140024701400148014006490140084C0140034D01400550014001510140090421042721870D8767880FC9
:4000800002040A011A021E03300336044010410649FF4AFF4BFF4DA04F045018528058045A045B045C015D115F01604062C06440654066C068C06AC06CC06EC08601890167
:4000C0009702980399019F02A602B302B501B603B920BF04C010C106C5D1C702C81BC9FFCAFFCBFFCDAFCE0FCF04D018D405D604D804D904DA04DB04DC11DD11DF01E040DD
:40010000E2C0E440E540E6C0E8C0EAC0ECC0EEC002200420068009200C200D80102019801D801E8021202204302031803208382041804580482049014A084E08501052281C
:4001400059815A086380768083408640C054C2C2C404CC0ECE04D018D224D60BD801EE019040EE0139023F0159045F0120408610A210A821EE0C1001160518061B012A025A
:400180002C013101320636013E404014410549FF4AFF4BFF4DA04F015018580459045A045F016040628064406540668068406A506BA86C406D206E506FA8820284028C0197
:4001C000A605AF01B004B402B501B601BE50C014C103C525C6C0C70EC81FC9FFCAFFCBFFCDAFCE07CF01D018D407D804D904DA04DB04DF01E040E280E440E540E680E8400D
:40020000EA50EBA8EC40ED20EE50EFA8004402400EA00F08102014041780184019401A041D801E20200427802A40361040A04180448045804640482049024C0151085250E9
:4002400059505A0461086210811284048F04A240C00DC270C4C4CA08CC20D09BD210D60ED806E2080405050C071108100C080D14130314051510170C1E0521102604280230
:4002800029092A042B102D1C2F023004320334103608371F38083E514035410246CB470E481C49FF4AFF4BFF4EF04F44500C5401580459045A045B045C225D225F0166C041
:4002C0006A406B0284018533860E87C4880C89038A038B049533960C974C9B559F80A208A5AAA603A744A801AA06AB88B130B20FB30FB5C8B60FB902BA88BB28BF01C00410
:40030000C604C9FFCA07CBFFCC40CD20CEF0CF05D008D804D904DA04DC22DD02DF01E040E1A8E240E32000140404060407010A100D080E0110A012081620171018101988AF
:400340001A011E941F88200421092208270129082B082C802D802F0830A03108331036083701380439103A283C043F8041014508460848204E025080562457405D105E8408
:400380005F0188208A029040C0E6C2A4C46ECAB6CCCECE56D061D210D6F0E248A840B604B781EE08332237405810CC70D4809C109F40A7229C109F40A722830284109C1059
:4003C000A722AB40E220E640EE802B04CA08A30403021A80A304C002C608A306AA40A72063028701AF20D640E610EE101F80530187028F04A306C601D401E202AF80B701F6
:40040000E80200020A0210051A011C04003F00000400000F0F00040000000000007F7F0000000000000010001000210000040400040002000E00180116001801000000006C
:40044000000000000000000000000000000000000000000000000000000000000000000000000000000000000000000000000000000000000000000000000000000000007C
:40048000000000000000000000000000000000000000000000000000000000000000000000000000000000000000000000000000000000000000000000000000000000003C
:4004C00000000000000000000000000000000000000000000000000000000000000000000000000000000000000000000000000000000000000000000000000000000000FC
:4005000000000000000000000000000000000000000000000000000000000000000000000000000000000000000000000000000000000000000000000000000000000000BB
:0200000490006A
:0400000000004005B7
:0200000490105A
:04000000BC90ACAF55
:0200000490303A
:02000000E2F22A
:0200000490402A
:4000000000000000000000000000000000000000000000000000000000000000000000000000000000000000000000000000000000000000000000000000000000000000C0
:400040000000000000000000000000000000000000000000000000000000000000000000000000000000000000000000000000000000000000000000000000000000000080
:400080000000000000000000000000000000000000000000000000000000000000000000000000000000000000000000000000000000000000000000000000000000000040
:4000C0000000000000000000000000000000000000000000000000000000000000000000000000000000000000000000000000000000000000000000000000000000000000
:0200000490501A
:0C00000000012E12306900012E1F135B5E
:00000001FF